:020000020000FC
:100000000FE50DBF08E00EBF07B10F71006E07B915
:1000100007B1007E076007B906B10871036E06B923
:1000200001B30C6001BB02B3037F02BB07E017B34F
:10003000187F012B07BBBF9AC7988F9A979877278D
:1000400012C0B790C7D5F0757791F7F516662752AD
:10005000426300E0302E0EE1402E41D03A94E9F7A1
:100060004A94D9F70895F5DF05B1033020F4C79815
:100070009798772715C0713029F0043658F0723000
:1000800049F071E0033030F0C79A12B320E812272C
:1000900012BB06C072E0C798979A093608F071E063
:1000A00036D0E1CF20E08894440F18F002E009D068
:1000B00002C003E006D000E004D02395283031F0E0
:1000C000F3CF18B3187F012B08BB08951EF0689476
:1000D000452FE8CF04E0F5DF00E0F3DF08950FB728
:1000E0000F93E0E6F0E051914EEFE894DBDF5191A1
:1000F00058604DEFE894D6DF51914BEFE894D2DF92
:10010000519147EFE894CEDF0F910FBF08950F9301
:100110002F932227043618F004562395FBCF16D0D0
:100120002093610022270A3018F00A502395FBCF54
:100130000DD0209362002227202F08D02093630047
:100140002227209360002F910F910895E2E4F0E0C0
:08015000E20FC895202D08956F
:00000001FF
