:020000020000FC
:100000000FED0DBF00E409B900E002B900E00BB943
:1000100008E10AB906E003B908E317B3177C012B1E
:1000200007BBA8D008C0FA82B9ABC36B7BA2FBEBBD
:10003000F35B789B797188D10CECA3D10EEBA1D145
:100040000027BAD1602FB8D1702F7ED102D2072FEE
:10005000162F27D279D10CEC94D104E492D101E08F
:10006000F02EEFD0B2D1E4E6F0E0AFE6B0E018E079
:1000700001910D931A95E1F702E0F02EE2D0A5D19F
:10008000009164000295C02E00916500C00E0091A1
:1000900066000295B02E9DD000916D0000936E0019
:1000A00000916C0000936D0000916B0000936C0058
:1000B000002700936B005ED000916F000295C02E68
:1000C00000917000C00E009171000295B02E81D099
:1000D00000916D0000936E0000916C0000936D0024
:1000E00000916B0000936C00002700936B0042D0DE
:1000F000A2CF0CB10335E1F4E4E6F0E01AD009E058
:1001000047D0EFE6F0E015D009E042D0EAE7F0E0B2
:100110000191003209F03CD00191003209F038D051
:10012000019136D0019134D0008132D00AE030D034
:1001300008950191005D2CD00191005D29D00EE25F
:1001400027D00191005D24D009E022D00191003236
:1001500009F01ED00191003221F008F001C0005DCD
:1001600017D00191005D14D00EE212D00081005D25
:100170000FD0089500E0302E0EE1402E4BD03A947F
:10018000E9F7B699B9DF5F99B4DF4A94B9F70895F2
:100190005D9BFECF0CB9089520E08894440F18F0C1
:1001A00000E109D002C008E106D000E004D02395A8
:1001B000283031F0F3CF18B3177C012B08BB08951A
:1001C0001EF06894452FE8CF00E2F5DF00E0F3DF92
:1001D00008950F930C2D02950F7014D000936B00AF
:1001E0000C2D0F700FD0046000936C000B2D029546
:1001F0000F7008D000936D000B2D0F7003D000938B
:100200006E0006C0E6E2F0E0E00FC895002D08950C
:100210000F9108950FB70F93EBE6F0E0519142E094
:10022000E894BADF519144E0E894B6DF519148E098
:10023000E894B2DF519140E1E894AEDF0F910FBF37
:1002400008950F930FB7F8940F931F932F933F9335
:100250004F935F93E894E8B2EF28E8BAE7B2EF284B
:10026000E7BAE8B2F094EF20E8BAB9E0A4EC5BD0CA
:10027000B9E0A4EC58D0E7B2EF20E7BAB0E0A8ECC0
:1002800052D0E7B2EF20E7BAE8B2EF20E8BAB0E028
:10029000AAEF49D0F094E6B2EF2009F038C0B1E0FF
:1002A000ACE241D0E6B2EF2009F431C0E6B2EF2073
:1002B00009F0FCCF1127222733274427552708E2CE
:1002C000E6B2EF2009F4FCCFB0E0AAEF2CD0E6B202
:1002D000EF2009F406C0E6B2EF2009F0FCCF089445
:1002E00001C08894111F221F331F441F551F0A95F8
:1002F00039F7121B131B141B151B49F440936000A4
:1003000050936100209362003093630001C06894B1
:100310005F914F913F912F911F910F9116F40064BF
:100320000FBF0F9108951197F1F708951197F1F705
:1003300008950F93B9E0A4ECF9DFB9E0A4ECF6DF7F
:100340000A95C1F70F910895C298BA9AB9E0AEE242
:10035000EDDFBA98B1E0AEE5E9DF6894B29BE894CE
:10036000B4E0A0EBE3DF089518F4B0E0A5E002C02C
:10037000B2E0A8E5BA9ADADFBA98B1E0ACE2D6DF2B
:1003800008951F9310E00795EFDF13951830D9F704
:100390001F910895B0E0A5E0BA9AC8DFBA98B0E01E
:1003A000A9E1C4DFE894B2996894B0E0AAEFBEDF97
:1003B00008940EF0889408951F9310E0EBDF0795E2
:1003C00013951830D9F71F9108950F931F932F930A
:1003D0003F934F93222733274427E89400916100ED
:1003E000109160001436030720F023951456004046
:1003F000F9CF1A3018F003951A50FBCF8EF02093E6
:1004000064000093650010936600689422270091B1
:1004100063001091620007FFE5CF42E00F77E2CF63
:1004200030E2222309F420E2442329F0203211F0A3
:100430003DE201C02DE230936700209368000093F5
:10044000690010936A004F913F912F911F910F9176
:1004500008950F931F9377FF07C000271127061BEE
:10046000170B602F712F7860062F0695069506955D
:100470000695770F770F770F770F702B6F70062F1A
:10048000000F660F660F660F600F6695669566959E
:100490006695703819F4662309F477271F910F9138
:1004A0000895E8940F932F931F931127222707FF96
:1004B00002C068940F77043618F004562395FBCFDA
:1004C000222331F4126020E220937A00222704C014
:1004D000205D20937A0022270A3018F00A502395D5
:1004E000FBCF222341F411FF06C0116020E22093CC
:1004F0007B00222704C0205D20937B002227005D23
:1005000000937C005EF410FF05C0E8942DE2209378
:100510007B0004C0E8942DE220937A001F912EE224
:1005200020937D00105D10937E002F910F91089510
:00000001FF
