:020000020000FC
:100000000FE50DBF08E00EBF0EE03AB3317F032BC2
:100010000ABB09C0B790C7D5F0757791F7F5F376AD
:1000200027D667636604000003E2C02E06E5B02E03
:100030001FD041D0F8CF20E08894110F18F004E0D1
:1000400009D002C006E006D000E004D02395283095
:1000500031F0F3CF3BB3317F032B0BBB08951EF080
:100060006894142FE8CF08E0F5DF00E0F3DF08958F
:10007000F8940F930C2D02950F7014D0009360002C
:100080000C2D0F700FD00860009361000B2D0295AE
:100090000F7008D0009362000B2D0F7003D00093F7
:1000A000630006C0E4E1F0E0E00FC895002D08957C
:1000B0000F9178940895E0E6F0E041911EEFE89406
:1000C000BADF41911DEFE894B6DF41911BEFE89450
:0C00D000B2DF419117EFE894AEDF089515
:00000001FF
