:020000020000FC
:1000000015C013C012C011C010C00FC00EC00DC06B
:100010000CC00BC00AC009C008C007C006C005C09C
:1000200004C003C002C001C000C018950FE50DBF99
:1000300008E00EBFA8950FE001BDA89507E609B935
:1000400000E000BD00E00BB908E10AB906E800BD18
:10005000789400E801BB00E80ABB0EE01AB3117FF8
:10006000012B0ABB00E00BBB11272227F5D1602E24
:100070001395F2D1702E1395EFD1802E1395ECD1FC
:10008000902E03D000E800B914C00027ACD110F0C6
:1000900001E001C000E0502E089506B707FFFDCF34
:1000A0000895B790C7D5F0757791F7F51666275282
:1000B00042634DD150FE07C002E095D178F001E0D7
:1000C00092D160F407C002E08ED120F401E08BD120
:1000D00028F400C00BB300680BBB03C00BB30F7751
:1000E0000BBBEED1A895A0D10000E3CFBD00CA00A4
:1000F000DB00E7002A0135014601520163016C0172
:100100007D0189019901AA24E8940F910F914A2D4C
:10011000440FECEEF0E05527E40FF51F45915491A4
:10012000F52FE42F0994E8941A2D137011F0A3947D
:10013000EECF1A2D1C5FA12EEACF1A2D137011F0ED
:1001400092D1E5CFA394E3CF00E0302E06E0402E1D
:10015000D8D13A94E9F74A94D9F7A89500E0302E1F
:1001600008E7402ECED13A94E9F7CD9BDCCFCE9B69
:10017000E4CFA8954A94B1F79CCF0CEBC02E0EEAC1
:10018000B02E9ED100916100077F00936100D5D011
:10019000A895DACF1EF06894DAD07C2DC72E90D1C6
:1001A00010916100177F1093610011271093620076
:1001B00010936300C9CF1EF06894672F7B2DB72E74
:1001C0007FD111271093600010936100BDCF04EA26
:1001D00006BF63DF01B1087F083011F001E0E02EB7
:1001E00000ED03B904E806BF58DF01B1087F08310C
:1001F00011F003E0E02E00E003B904E806BF4DDF94
:1002000001B1087F083211F00FE0E02E00E003B9E1
:1002100004E806BF42DF01B1087F083211F00FE0A9
:10022000E02E072F03B904E806BF37DF01B1087FCE
:10023000083211F00FE0E02E062F03B904E806BFE4
:100240002CDF01B1087F083211F00FE0E02E04E945
:1002500006BFA39400EBC02E0FEFB02E31D100915A
:100260006100077F009361006FCF1EF06894762DC8
:10027000BB24C72E25D110916100177F1093610018
:10028000112710936200109363005ECF1EF06894F4
:10029000672F772DB72E14D111271093600010937C
:1002A000610052CF772E662E00279DD019F4762D4F
:1002B000DAD0672E11272227062DC6D01395072DD9
:1002C000C3D0E3DEA39400EBC02E0DE0B02EF8D037
:1002D00000270093610038CF1EF06894782DBB246E
:1002E000C72EEED010916100177F10936100112787
:1002F000109362001093630027CF1EF06894672F5D
:10030000792DB72EDDD01127109360001093610076
:100310001BCF972E862E002766D019F4782DA3D0F8
:10032000872E12E02227082D8FD01395092D8CD00F
:10033000ACDE0DD0C5D001D0BCCE00E0302E07E041
:10034000402EDFD03A94E9F74A94D9F7089504EAA9
:1003500006BFA3DE01B1087F083011F001E0E02EF6
:1003600000ED03B904E806BF98DE01B1087F08314B
:1003700011F003E0E02E01E003B904E806BF8DDED2
:1003800001B1087F083211F00FE0E02E04EA06BF49
:1003900084DE01B1087F003111F005E0E02E01EDAF
:1003A00003B904E806BF79DE01B1087F003411F01B
:1003B00007E0E02E04EC06BF70DE01B1087F0035D7
:1003C00011F00FE1E02E03B1B02E04E806BF65DEA8
:1003D00001B1087F083511F00FE3E02E03B1C02E04
:1003E00004E906BF0895CF92BF9200FD05C001FD4C
:1003F00006C0C62CB72C03C0062D172D02C0082D31
:10040000192DC01648F00C1550F0B11628F01B1528
:1004100030F08894189405C00894989402C0889489
:100420009894BF90CF90089500E0302E0EE1402EBA
:1004300068D03A94E9F7CD9B66CE4A94C9F70895FF
:100440005D9BFECF0CB90895E199FECF2FBB1EBB7B
:100450000DBBE29AE19A0895E199FECF2FBB1EBB36
:10046000E09A0DB308957395172F1F701A3010F08E
:10047000707F705F703608F07727A0FE03C074327B
:1004800008F07727089520E08894440F18F004E0DE
:1004900009D002C006E006D000E004D02395283041
:1004A00031F0F3CF1BB3117F012B0BBB08951EF06E
:1004B0006894452FE8CF08E0F5DF00E0F3DF08950A
:1004C0000F930C2D02950F7014D0009360000C2D2B
:1004D0000F700FD00860009361000B2D02950F7014
:1004E00008D0009362000B2D0F7003D000936300BF
:1004F00006C0E2EAF0E0E00FC895002D08950F91E4
:1005000008950FB70F93E0E6F0E051914EEFE894B5
:10051000BADF51914DEFE894B6DF51914BEFE8947B
:10052000B2DF519147EFE894AEDF0F910FBF08950E
:00000001FF
