:020000020000FC
:1000000011C00FC00EC00DC00CC00BC00AC009C08B
:1000100008C007C006C005C004C003C002C001C0BC
:1000200000C018950FED0DBFA89504B7077F04BF5A
:1000300001B5086101BD0FE001BDA895789404E009
:100040000ABB08EA1AB31775012B0ABB00E00BBB09
:1000500007B10F73006007B907B1007C016007B9F1
:1000600006B10871036E06B903B10F7E006103B9D2
:100070009FD1222710E053D2602E11E050D2702E73
:1000800012E04DD2802E13E04AD2902E01D029C02A
:1000900000270BD210F001E001C000E0502E0895BF
:1000A00000EF01C00EEF0EB91BE20ED01DB9CC9BC4
:1000B000FECF0AD01DB90EB10074B9F305D00FB14F
:1000C0001FEF1FB9D69A089508E000000A95E9F7D6
:1000D0000895FA82B9ABC36B7BA2FBEB1A59781374
:1000E000117177D150FE07C002E0DFD178F001E056
:1000F000DCD160F407C002E0D8D120F401E0D5D112
:1001000028F400C00BB304600BBB03C00BB30B7F20
:100110000BBB48D2A895EAD10000E3CFE200EF0084
:1001200000010C015B0166017701830194019D01CF
:10013000AE01BA01CA01AA24E8940F910F914A2D89
:10014000440FECE1F1E05527E40FF51F4591549180
:10015000F52FE42F0994E894A394F1CF1A2D13708E
:1001600011F0E4D1ECCF1A2D1C5F1C3008F01127E0
:10017000A12EE5CF1A2D137011F0E8D1E0CF1A2D82
:100180001450193008F018E0A12ED9CF00E0302E1D
:1001900006E0402E2AD23A94E9F74A94D9F7A89576
:1001A00000E0302E08E7402E20D23A94E9F700D143
:1001B00030FDD1CF31FDD2CF32FDDCCFA8954A94AE
:1001C00099F78FCF0CEBC02E0EEAB02EEBD1009139
:1001D00061000B7F00936100E1D0A895D7CF1EF09E
:1001E0006894F7D07C2DC72EDDD1109161001B7F64
:1001F0001093610011271093620010936300C6CF23
:100200001EF06894672F7B2DB72ECCD11127109349
:10021000600010936100BACFDC9A56DFDE9AD49862
:1002200000EF0EB9DE9850DFD49ADC98DE9A4CDFEE
:1002300000EDCC9B02C0216006C00FB931DFD6981B
:1002400031DF00FD216000E0CC9B02C0216006C0D0
:100250000FB926DFD69826DF00FD216000E0CC9B99
:1002600002C0216006C00FB91BDFD6981BDF00FD5E
:100270002160072FCC9B02C0216006C00FB910DFA0
:10028000D69810DF00FD2160062FCC9B02C02160B4
:1002900006C00FB905DFD69805DF00FD2160DC98A8
:1002A00013DFDE9811DFDC9A0FDFDE9A0DDF0EB16F
:1002B00000620EB9A39400EBC02E0FEFB02E72D1E6
:1002C000009161000B7F0093610060CF1EF0689485
:1002D000762DBB24C72E66D1109161001B7F109331
:1002E0006100112710936200109363004FCF1EF03E
:1002F0006894672F772DB72E55D111271093600082
:100300001093610043CF772E662E0027CED019F4CC
:10031000762D0CD1672E222710E0062DF4D011E0A7
:10032000072DF1D0B5DEA39400EBC02E0DE0B02E6A
:1003300039D100270093610029CF1EF06894782DF1
:10034000BB24C72E2FD1109161001B7F1093610039
:100350001127109362001093630018CF1EF0689469
:10036000672F792DB72E1ED111271093600010939F
:1003700061000CCF972E862E002797D019F4782D88
:10038000D5D0872E222712E0082DBDD013E0092DED
:10039000BAD07EDE1ED006D101D0A3CE00E0302E32
:1003A00007E0402E22D13A94E9F74A94D9F708950C
:1003B0000F9305B1003F30F40A3030F00B3430F0C9
:1003C00034E005C0332703C031E001C032E00F91B3
:1003D0000895D49AD69A0AE20DB900EF0EB91FEF2C
:1003E0001FB9DE9ADC9A70DEDC9A6EDEDE9AD49853
:1003F00000EF0EB9DE9868DED49ADC98DE9A64DEEF
:1004000000EDCC9B02C0216006C00FB949DED69832
:1004100049DE00FD216001E0CC9B02C0216006C0E6
:100420000FB93EDED6983EDE00FD2160DC9A4CDE40
:10043000DE9AD49800EF0EB9DE9846DED49ADC98A6
:10044000DE9A42DE01EDCC9B02C0216006C00FB9EE
:1004500027DED69827DE00FD2160CC9B02C02160FC
:1004600002C0D6981DDE0F9320FD04C000E00FB936
:1004700019DE0F91B02ECC9B02C0216002C0D6982D
:100480000FDE0F9320FD04C00FEF0FB90BDE0F91AD
:10049000C02EDC9819DEDE9817DEDC9A15DEDE9AB7
:1004A00013DE0EB100620EB90895CF92BF9200FD27
:1004B00005C001FD06C0C62CB72C03C0062D172DA4
:1004C00002C0082D192DC01648F00C1550F0B116B9
:1004D00028F01B1530F08894189405C0089498945F
:1004E00002C088949894BF90CF90089500E0302E79
:1004F0000EE1402E7AD03A94E9F75ADF30FD1BCE58
:100500004A94C1F70895E199FECF0F9300E00CBB28
:100510002FBB1EBB0F910DBBE29AE19A0895E199A2
:10052000FECF2FBB1EBBE09A0DB308957395172F16
:100530001F701A3010F0707F705F703608F07727E8
:10054000A0FE03C0743208F0772708957A95172F1C
:100550001F701F3008F07650703608F079E5A0FE65
:1005600003C0743208F073E2089520E08894440FC9
:1005700018F000E209D002C008E206D000E004D082
:100580002395283031F0F3CF1BB31775012B0BBB2C
:1005900008951EF06894452FE8CF00E8F5DF00E0ED
:1005A000F3DF0895F8940F930C2D02950F7014D07B
:1005B000009360000C2D0F700FD004600093610059
:1005C0000B2D02950F7008D0009362000B2D0F7059
:1005D00003D00093630006C0E2EDF0E0E00FC895A1
:1005E000002D08950F91789408950FB70F93E0E6CA
:1005F000F0E0519142E0E894B8DF519144E0E89492
:10060000B4DF519148E0E894B0DF519140E1E894C3
:08061000ACDF0F910FBF08954C
:00000001FF
