:020000020000FC
:1000000011C00FC00EC00DC00CC00BC055C009C040
:1000100008C007C006C005C004C003C002C001C0BC
:1000200000C018950FED0DBFA89504B7077F04BF5A
:1000300001B5086101BD0FE001BDA895789404E009
:100040000ABB08EA1AB31775012B0ABB00E00BBB09
:1000500007B10F73006007B907B1007C016007B9F1
:1000600006B10871036E06B903B10F7E006103B9D2
:10007000BBD102E00CB905E00EBD0EE10BBD04E8FA
:100080000ABD00E00DBD0CBD7894222710E067D2B8
:10009000602E11E064D2702E12E061D2802E13E047
:1000A0005ED2902E01D052C000271DD210F001E088
:1000B00001C000E0502E08950F930FB70F93F894EE
:1000C00000E00DBD0CBDA89501E0D0FC0027D02EAE
:1000D00004D00F910FBF0F911895D0FC0BC0009169
:1000E00062000B7F00936200009163000B7F00931E
:1000F0006300089500916200046000936200009123
:100100006300046000936300089500EF01C00EEFE8
:100110000EB91BE20ED01DB9CC9BFECF0AD01DB983
:100120000EB10074B9F305D00FB11FEF1FB9D69A05
:10013000089508E000000A95E9F70895FA82B9AB3E
:10014000C36B7BA2FBEB1A59781311715ED150FE81
:1001500007C002E0C8D178F001E0C5D160F407C063
:1001600002E0C1D120F401E0BED128F400C00BB3FD
:1001700004600BBB03C00BB30B7F0BBB35D2A89540
:10018000D3D10000E3CF17011F012B0137018601F6
:100190008C019801A401B501BE01CA01D601E60196
:1001A000AA24E8940F910F914A2D440FE6E8F1E05C
:1001B0005527E40FF51F45915491F52FE42F09942D
:1001C000E894A394F1CF1A2D137011F0D1D1ECCF94
:1001D0001A2D1C5F1C3008F01127A12EE5CF1A2D17
:1001E000137011F0D5D1E0CF1A2D1450193008F04A
:1001F00018E0A12ED9CF00E0302E06E0402E18D214
:100200003A94E9F74A94D9F7A89500E0302E08E728
:10021000402E0ED23A94E9F7E7D030FDD1CF31FD30
:10022000D2CF32FDDCCFA8954A9499F78FCF0CEB53
:10023000C02E0EEAB02ED8D1CDD0A895DCCF1EF0BE
:100240006894E3D07C2DC72ECFD111271093620084
:1002500010936300D0CF1EF06894672F7B2DB72ECC
:10026000C3D111271093600010936100C4CFDC9AB2
:1002700060DFDE9AD49800EF0EB9DE985ADFD49A88
:10028000DC98DE9A56DF00EDCC9B02C0216006C0F0
:100290000FB93BDFD6983BDF00FD216000E0CC9B2F
:1002A00002C0216006C00FB930DFD69830DF00FDF4
:1002B000216000E0CC9B02C0216006C00FB925DFA1
:1002C000D69825DF00FD2160072FCC9B02C021605E
:1002D00006C00FB91ADFD6981ADF00FD2160062F7D
:1002E000CC9B02C0216006C00FB90FDFD6980FDF8C
:1002F00000FD2160DC981DDFDE981BDFDC9A19DF32
:10030000DE9A17DF0EB100620EB9A39400EBC02E87
:100310000FEFB02E69D16FCF1EF06894762DBB24FD
:10032000C72E62D11127109362001093630063CF30
:100330001EF06894672F772DB72E56D11127109392
:1003400060001093610057CF772E662E0027CBD028
:1003500019F4762D0DD1672E222710E0062DF1D04D
:1003600011E0072DEED0A0DEA39400EBC02E0DE02F
:10037000B02E3AD10027009361003DCF1EF0689463
:10038000782DBB24C72E30D1112710936200109313
:10039000630031CF1EF06894672F792DB72E24D1DA
:1003A0001127109360001093610025CF972E862EA1
:1003B000002799D019F4782DDBD0872E222712E060
:1003C000082DBFD013E0092DBCD06EDE1ED00CD19D
:1003D00001D0BCCE00E0302E07E0402E29D13A9467
:1003E000E9F74A94D9F708950F9305B1003F30F427
:1003F0000A3030F00B3430F034E005C0332703C04E
:1004000031E001C032E00F910895F894D49AD69A61
:100410000AE20DB900EF0EB91FEF1FB9DE9ADC9AA0
:1004200088DEDC9A86DEDE9AD49800EF0EB9DE987C
:1004300080DED49ADC98DE9A7CDE00EDCC9B02C094
:10044000216006C00FB961DED69861DE00FD216033
:1004500001E0CC9B02C0216006C00FB956DED698E1
:1004600056DE00FD2160DC9A64DEDE9AD49800EF4F
:100470000EB9DE985EDED49ADC98DE9A5ADE01ED83
:10048000CC9B02C0216006C00FB93FDED6983FDE8C
:1004900000FD2160CC9B02C0216002C0D69835DEF1
:1004A0000F9320FD04C000E00FB931DE0F91B02E94
:1004B000CC9B02C0216002C0D69827DE0F9320FD9E
:1004C00004C00FEF0FB923DE0F91C02EDC9831DE90
:1004D000DE982FDEDC9A2DDEDE9A2BDE0EB1006276
:1004E0000EB978940895CF92BF9200FD05C001FD2A
:1004F00006C0C62CB72C03C0062D172D02C0082D30
:10050000192DC01648F00C1550F0B11628F01B1527
:1005100030F08894189405C00894989402C0889488
:100520009894BF90CF90089500E0302E0EE1402EB9
:100530007FD03A94E9F758DF30FD32CE4A94C1F7C4
:100540000895F894E199FDCF0F9300E00CBB2FBB09
:100550001EBB0F910DBBE29AE19A78940895F8942E
:10056000E199FDCF2FBB1EBBE09A0DB3789408959F
:100570007395172F1F701A3010F0707F705F7036F0
:1005800008F07727A0FE03C0743208F0772708959B
:100590007A95172F1F701F3008F07650703608F0CC
:1005A00079E5A0FE03C0743208F073E2089520E0FC
:1005B0008894440F18F000E209D002C008E206D087
:1005C00000E004D02395283031F0F3CF1BB317752A
:1005D000012B0BBB08951EF06894452FE8CF00E86F
:1005E000F5DF00E0F3DF0895F8940F930C2D0295EA
:1005F0000F7009F013D0009360000C2D0F700ED017
:10060000009361000B2D02950F7008D000936200DB
:100610000B2D0F7003D00093630006C0ECE3F1E0F4
:10062000E00FC895002D089558DD0F917894089536
:100630000FB70F93E0E6F0E0519142E0E894B7DFA6
:10064000519144E0E894B3DF519148E0E894AFDF82
:0E065000519140E1E894ABDF0F910FBF089588
:00000001FF
