:020000020000FC
:100000000FED0DBF08E317B3177C012B07BB82C0B0
:100010000F931F9310E08894000F28F0B9E0A4EC30
:100020002AD0C09804C0BFE1A0E425D0C098BBE0AE
:10003000A8EB21D0C09A1395183009F0EDCF1F918D
:100040000F9108950F93C09809E018D0C09A04E06A
:1000500015D0B9E0A4EC0FD0C098BBE0A8EB0BD052
:10006000C09A00E0D5DF0FEFD3DF0F91D1DF00950D
:10007000CFDF61D008951197F1F708950F93B9E09C
:10008000A4ECF9DFB9E0A4ECF6DF0A95C1F70F9113
:100090000895C298BA9AB9E0AEE2EDDFBA98B1E03D
:1000A000AEE5E9DF6894B29BE894B4E0A0EBE3DF4F
:1000B000089518F4B0E0A5E002C0B2E0A8E5BA9A4D
:1000C000DADFBA98B1E0ACE2D6DF08951F9310E012
:1000D0000795EFDF13951830D9F71F910895B0E019
:1000E000A5E0BA9AC8DFBA98B0E0A9E1C4DFE89405
:1000F000B2996894B0E0AAEFBEDF08940EF088943D
:1001000008951F9310E0EBDF079513951830D9F78A
:100110001F91089507B3016007BBC09A09E1B19927
:1001200091DF09E2B2998EDF09E0B7998BDF01E335
:10013000B69988DFEFCF00E0302E402E0EE1502E32
:0E0140003A94F1F74A94E1F75A94D1F70895F2
:00000001FF
