:020000020000FC
:1000000015C013C012C011C010C00FC00EC00DC06B
:100010000CC00BC00AC009C008C007C006C005C09C
:1000200004C003C002C001C000C018950FE50DBF99
:1000300008E00EBF05E00EBD66274427772751E094
:100040000FE001BB789404C001030206040C080908
:100050000CB51DB520E732E00217130749F02EE476
:1000600030E002171307A1F702B3007F02BBF0CF05
:1000700000270DBD0CBD02B3007F052B02BB4395CD
:10008000443618F0442701E0602760FD05C07395F1
:10009000783030F0772704C07A957F3F09F477E015
:0C00A000E8E4F0E0E70FC895502DD2CF47
:00000001FF
