:020000020000FC
:100000000AC008C007C006C005C004C003C002C0C3
:100010002DC000C01895F894A89504B7077F04BFB9
:1000200001B5086101BD0EE401BD07B102E207B9E7
:1000300006B103EC06B90FE90DBF0CE007BB00E009
:1000400008BB44275527662778946B7F369A3699E4
:10005000FECF05B10C3A20F408B30B7F08BB03C0F8
:1000600008B3046008BB62FDEFCFFDCF0F930FB75D
:100070000F9301B5006401BD60FF0EC008B314E02A
:10008000012708BB4395453311F45395442752305B
:1000900019F4403009F4626064600F910FBF0F9152
:0200A0001895B1
:00000001FF
