:020000020000FC
:100000000FE50DBF08E00EBF07E609B900E000BD2F
:1000100000E00BB908E10AB906E800BD00E800B944
:10002000EE2432D018E341D011E03FD016E03DD0AD
:100030001CE03BD012E039D011E0106011F410E860
:1000400009C0113011F410EC05C0123011F414E99C
:1000500001C014ED2AD066272CE004E5102F29D02A
:1000600010E0106011F410E809C0113011F410EC28
:1000700005C0123011F414E901C014ED16D08CC083
:1000800006B707FFFDCF0895D998DA98DB98D19A83
:10009000D29AD39A29D00895D998DA9ADB9A29D09E
:1000A000DB9806B30078D1F70895F894F5DFD99876
:1000B00003C0F894F1DFD99ADA98DB9A0FEF07BB07
:1000C00018BB17D0DB9810D078940895F894E4DF2B
:1000D000D99803C0F894E0DFD99ADA9ADB9A09D06C
:1000E00016B3DB987894089500E007BB0FEF08BBC8
:1000F00008950EE00A95F1F708951197F1F7089524
:100100000F93B7E0A0EDF9DFB7E0A0EDF6DF0A95B9
:10011000C1F70F910895D898D09AB7E0A0EDEDDF20
:10012000D098B1E0A8E1E9DF6894C89BE894B3E017
:10013000A0ECE3DF089518F4B0E0A4E002C0B1E061
:10014000A0EED09ADADFD098B0E0A0EFD6DF089525
:100150001F9310E00795EFDF13951830D9F71F9123
:100160000895B0E0A4E0D09AC8DFD098B0E0A4E150
:10017000C4DFE894C8996894B0E0A8ECBEDF0894A6
:100180000EF0889408951F9310E0EBDF0795139508
:100190001830D9F71F91089504EA06BF71DF01B145
:1001A000087F083011F001E0E02EE0FC5CC000EDBB
:1001B00003B904E806BF64DF01B1087F083111F01C
:1001C00003E0E02EE0FC4FC000E003B904E806BF06
:1001D00057DF01B1087F083211F00FE0E02EE0FC9C
:1001E00042C004EA06BF4CDF01B1087F003111F0C4
:1001F00005E0E02EE0FC37C001ED03B904E806BFDE
:100200003FDF01B1087F003411F007E0E02EE0FC91
:100210002AC004EC06BF34DF01B1087F003511F0BD
:100220000FE1E02E03B1E0FC1EC0A02E04EC06BFDF
:1002300027DF01B1087F003511F00FE1E02E03B197
:10024000E0FC11C0B02E04E806BF1ADF01B1087F40
:10025000083511F00FE3E02E03B1E0FC04C0C02E1E
:1002600004E906BF04C00E2D4CD0EE2495CFBCD0BF
:10027000E0E6F0E028E00191102F1BDF2A95222311
:10028000D1F711E0106011F412E809C0113011F437
:1002900012EC05C0123011F416E901C016ED05DFAD
:1002A0003ADF0CEC55DF04E453DF0AEF29DF28DFE7
:1002B00027DF31DF0CEC4CDF0EEB4ADF002763DF7A
:1002C000602F61DF702F27DF20D0072F162F45D03A
:1002D000E8E6F0E025E00191102FEBDE2A952223DD
:1002E000D1F710E0106011F410E809C0113011F4DA
:1002F00010EC05C0123011F414E901C014EDD5DE84
:100300004BCF5D9BFECF0CB908950F931F9377FFE2
:1003100007C000271127061B170B602F712F78606D
:10032000062F0695069506950695770F770F770F9A
:10033000770F702B6F70062F000F660F660F660F1A
:10034000600F6695669566956695703819F4662314
:1003500009F477271F910F910895E8940F932F9335
:100360001F931127222707FF02C068940F770436D6
:1003700018F004562395FBCF222331F4126020E2BB
:1003800020936800222704C0205D20936800222764
:100390000A3018F00A502395FBCF222341F411FFB5
:1003A00006C0116020E220936900222704C0205D6E
:1003B000209369002227005D00936A005EF410FF1D
:1003C00005C0E8942DE22093690004C0E8942DE272
:1003D000209368001F912EE220936B00105D109314
:1003E0006C002F910F9108950F930C2D0695069593
:1003F00006950695005D009360000C2D0F70005D62
:10040000009361000B2D0695069506950695005DF7
:10041000009363000B2D0F70005D009364000A2DA4
:100420000695069506950695005D009366000A2DD3
:100430000F70005D009367000AE300936200009371
:1004400065000F910895F4E0E8E570E0E60FF71F0E
:10045000C895002D6395089554656D70657261743B
:040460007572612030
:00000001FF
