:020000020000FC
:100000005EC013C012C011C010C00FC00EC00DC022
:100010000CC00BC00AC009C008C007C006C005C09C
:1000200004C003C084C001C000C01895FA82B9ABF7
:10003000C36B7BA2FBEB1197F1F70895C498BC9AB0
:10004000B9E0AEE2F8DFBC98B1E0AEE5F4DF689469
:10005000B49BE894B4E0A0EBEEDF089518F4B0E0B0
:10006000A5E002C0B2E0A8E5BC9AE5DFBC98B1E02B
:10007000ACE2E1DF08951F9310E00795EFDF1395E1
:100080001830D9F71F910895B0E0A5E0BC9AD3DFEE
:10009000BC98B0E0A9E1CFDFE894B4996894B0E0EF
:1000A000AAEFC9DF08940EF0889408951F9310E01A
:1000B000EBDF079513951830D9F71F910895F89441
:1000C000A89504B7077F04BF01B5086101BD0EE420
:1000D00001BD0FED0DBFB89AB99AC098C19807B38A
:1000E000006E07BB7894BED037FFFDCF3F77A6DF09
:1000F0000CECC1DF0EEBBFDF0027D8DF602FD6DFAF
:10010000702F9CDF3BD05CD099DF0CECB4DF04E4B3
:10011000B2DF17E104E016D018F0C098C19806C00D
:1001200017E100E00FD010F4C09AC19ADCCF0F9312
:100130000FB70F9301B5006401BD30680F910FBF79
:100140000F91189517FD09C077FD12C0711780F047
:1001500091F4601768F079F408C077FF0CC01717A6
:1001600038F049F4061720F031F488941894089573
:100170000894989408958894989408950F931F93E1
:1001800077FF07C000271127061B170B602F712F61
:100190007860062F007F02957295707F702B6F70CC
:1001A000062F000F660F660F660F600F607F629567
:1001B000703819F4662309F477271F910F91089579
:1001C000E8940F932F931F93072F1127222707FFE0
:1001D00002C068940F77043618F004562395FBCFBD
:1001E000222329F4126022272093600007C0ECE24A
:1001F000F0E0E20FC8950092600022270A3018F064
:100200000A502395FBCF222341F411FF06C0116051
:10021000222720936100222707C0ECE2F0E0E20FE2
:10022000C895009261002227ECE2F0E0E00FC8954B
:10023000002D0460009362005EF410FF05C0E89496
:1002400021E02093610004C0E89421E02093600045
:10025000ECE2F0E0E60FC895009263001F912F9149
:100260000F9108950FB70F93E0E6F0E0519142E04F
:100270000CD0519144E009D0519148E006D0519101
:1002800040E103D00F910FBF08950F931F932F9359
:10029000E89422278894440F18F000E409D002C0A3
:1002A00000EC06D000E004D02395283031F0F3CFE5
:1002B00018B31F71012B08BB08951EF06894452FD9
:1002C000E8CF00E2F5DF00E0F3DF2F911F910F91FF
:1002D000089508E2302E402E502E3A94F1F74A94B9
:0802E000E1F75A94D1F70895EB
:00000001FF
