:020000020000FC
:1000000015C013C012C011C03FC00FC00EC00DC03C
:100010000CC00BC00AC009C045C007C006C005C05F
:1000200004C003C002C001C000C018950FED0DBF91
:10003000B89AC09800E609BF02E00EBD03EC0BBD04
:1000400009E40ABD07E009BD00ED08BDF7E0E0EDF9
:1000500000E00DBD0CBD2227332778942ED02395C8
:100060002630E0F3B19BFECF30FD04C031E006D076
:1000700024D0F8CF30E005D020D0F4CFF3E1E8E889
:100080000895F7E0E0ED08950F930FB70F93F894FC
:1000900000E00DBD0CBDF9BDE8BDC09A0F910FBFCA
:1000A0000F9118950F930FB70F931F93F894C09863
:1000B0001F910F910FBF0F91189504E6302E402E1F
:1000C000502E3A94F1F74A94E1F75A94D1F70895F3
:00000001FF
