:020000020000FC
:1000000015C013C012C011C02DC00FC00EC00DC04E
:100010000CC00BC00AC009C033C007C006C005C071
:1000200004C003C002C001C000C018950FED0DBF91
:10003000B89AC09800E609BF02E00EBD03EC0BBD04
:1000400009E40ABD07E009BD00ED08BDF7E0E0EDF9
:1000500000E00DBD0CBD78941ED004E61127E00F22
:10006000F11FFACF0F930FB70F93F89400E00DBD77
:100070000CBDF9BDE8BDC09A0F910FBF0F91189547
:100080000F930FB70F931F93F894C0981F910F9180
:100090000FBF0F91189500E0302E402E502E3A944D
:0C00A000F1F74A94E1F75A94D1F7089563
:00000001FF
