:020000020000FC
:100000000AC008C085C006C005C004C003C002C045
:1000100001C000C01895F894A89504B7077F04BFE5
:1000200001B5086101BD0FE001BD0FE90DBF03E19E
:1000300007BB00E008BB00E20BBF04E005BBBB242C
:10004000AA2488270027E199FECF0EBBE09A3DB392
:10005000B1C01197F1F708950F93B3E0A8EEF9DF5F
:10006000B3E0A8EEF6DF0A95C1F70F910895C398A3
:10007000BB9AB3E0A4ECEDDFBB98B0E0ACE8E9DFFD
:100080006894B39BE894B1E0A0EEE3DF089518F420
:10009000B0E0A2E002C0B0E0A0EFBB9ADADFBB980C
:1000A000B0E0A8E7D6DF08951F9310E00795EFDFD3
:1000B00013951830D9F71F910895B0E0A2E0BB9ACC
:1000C000C8DFBB98B0E0AAE0C4DFE894B3996894B5
:1000D000B0E0A4E6BEDF08940EF0889408951F9364
:1000E00010E0EBDF079513951830D9F71F910895AD
:1000F00012D73191D49818D31090501C3A153878F3
:100100002811AFAD0500002F283BCBAC050000D770
:100110000F930FB70F931F932F93F89405E09CDF75
:10012000B29B41C000E010E027E10A95F1F7B29BD5
:1001300006C01A95D1F72A95C1F7A89533C0732F39
:100140006627F2D04F7EA8D000E010E02EE50A9599
:10015000F1F7B29906C01A95D1F7A8952A95B9F783
:1001600017C0A8953395323108F032E0732FDCD0F8
:100170004F7E92D008EC70DF00E010E029E00A9595
:10018000F1F7B29BE1CF1A95D1F72A95C1F7DCCFF1
:10019000E199FECF00E00CBB00270EBB3DBBE29A0D
:1001A000E19A01C0B09478942F911F910F910FBFE5
:1001B0000F911895A8955BDF0CEC76DF04E474DFF3
:1001C0000AEF789449DFA89547DFA89545DFA89501
:1001D00043DFA895F8944BDFE894E6D083D0A4D011
:1001E0005BD0A1FC22C077FD19C0132F115003E092
:1001F000CAD0A0F0A0FE07C0132F1A9509E0C3D003
:1002000010F0AA248D7F132F1A9506E0BCD050F071
:10021000132F1A9509E0B7D038F407C005E0A02ED7
:10022000836003C0816001C08E7F00006894BCD0F1
:1002300059D0A0FC0DC077FD05C0733018F07830A0
:1002400028F406C006E0A02E836002C0AA248D7F99
:100250000000032F000F030F132F1A3018F01A504D
:10026000010F701728F00395701718F0846001C013
:100270008B7F112782FD04C081FD116080FD10611C
:1002800008B30E7E012B08BBBB2029F008E2ACD0DE
:10029000A8954AD001D08ECFE89408B30F931F934E
:1002A000A2FC4F7E20E08894440F18F002E009D0B1
:1002B00002C003E006D000E004D02395283031F0DE
:1002C000F3CF18B31C7F012B08BB08951EF0689470
:1002D000452FE8CF02E0F5DF00E0F3DF1F910F913B
:1002E00008BB08950F931F9377FF07C000271127BE
:1002F000061B170B602F712F7860062F007F029569
:100300007295707F702B6F70062F000F660F660F4F
:10031000660F600F607F6295703819F4662309F4E8
:1003200077271F910F910895E8946F937F9311277A
:10033000222777FF02C068947F777A3018F07A50CE
:100340002395FBCF222351F41EF0272F11E006C086
:10035000E0EFF0E0E70FC895402D20E1E0EFF0E09E
:10036000E20FC895502DE0EFF0E010FF672FE60F89
:10037000C895402D10FD5F7E0EF002C002E05027B0
:100380007F916F910895711748F0171750F060171B
:1003900028F0061730F088941894089508949894DB
:1003A000089588949894089505E57EDE10E0E0E0D5
:1003B000F1E0C0E6D0E016F438962296059174DE9E
:1003C00013951830D9F70EEB6FDE002788DE602F0B
:1003D00086DE702F84DE4BDE0B3419F4699378834C
:1003E00002C0699178810895802E00E0602E00E0BF
:1003F000702E6A94F1F77A94E1F78A94D1F7089510
:00000001FF
