:020000020000FC
:100000000FE50DBF08E00EBF07E609B900E000BD2F
:1000100000E00BB908E10AB906E800BDBCD00CEC61
:10002000D7D004E4D5D00AEFABD0AAD0A9D0B3D0B2
:1000300005E5CED008E2CCD001E9CAD00AE4C8D0A8
:1000400002EAC6D003E0C4D000E0C2D000E0C0D0D5
:1000500006E8BED00EEBBCD00027D5D0602FD3D0A1
:10006000702F99D01BD0072F162F40D00091600021
:1000700011D0009161000ED0009162000BD0009170
:10008000630008D00091640005D00AE003D00DE0C1
:1000900001D0C4CF5D9BFECF0CB908950F931F9381
:1000A00077FF07C000271127061B170B602F712F42
:1000B0007860062F0695069506950695770F770FBB
:1000C000770F770F702B6F70062F000F660F660F7C
:1000D000660F600F6695669566956695703819F49B
:1000E000662309F477271F910F910895E8940F93E1
:1000F0002F931F931127222707FF02C068940F77C1
:10010000043618F004562395FBCF222331F41260F5
:1001100020E220936000222704C0205D209360002D
:1001200022270A3018F00A502395FBCF222341F4EE
:1001300011FF06C0116020E220936100222704C055
:10014000205D209361002227005D009362005EF431
:1001500010FF05C0E8942DE22093610004C0E894EC
:100160002DE2209360001F912EE220936300105D2A
:10017000109364002F910F9108951197F1F708954E
:100180000F93B7E0A0EDF9DFB7E0A0EDF6DF0A9539
:10019000C1F70F910895D898D09AB7E0A0EDEDDFA0
:1001A000D098B1E0A8E1E9DF6894C89BE894B3E097
:1001B000A0ECE3DF089518F4B0E0A4E002C0B1E0E1
:1001C000A0EED09ADADFD098B0E0A0EFD6DF0895A5
:1001D0001F9310E00795EFDF13951830D9F71F91A3
:1001E0000895B0E0A4E0D09AC8DFD098B0E0A4E1D0
:1001F000C4DFE894C8996894B0E0A8ECBEDF089426
:100200000EF0889408951F9310E0EBDF0795139587
:080210001830D9F71F91089581
:00000001FF
