:020000020000FC
:100000000FE50DBF08E00EBF07E609B900E000BD2F
:1000100000E00BB908E10AB906E800BD0EE01AB32A
:10002000117F012B0ABBA8D008C0B790C7D5F075C7
:100030007791F7F516662752426386D10CECA1D171
:100040000EEB9FD10027B8D1602FB6D1702F7CD195
:1000500000D2072F162F25D277D10CEC92D104E4D1
:1000600090D101E0F02EEDD0B0D1E4E6F0E0AFE6C3
:10007000B0E018E001910D931A95E1F702E0F02E3F
:10008000E0D0A3D1009164000295C02E00916500DC
:10009000C00E009166000295B02E9BD000916D00BD
:1000A00000936E0000916C0000936D0000916B0056
:1000B00000936C00002700936B005ED000916F00EE
:1000C0000295C02E00917000C00E00917100029543
:1000D000B02E7FD000916D0000936E0000916C00F7
:1000E00000936D0000916B0000936C00002700935B
:1000F0006B0042D0A2CF0CB10335E1F4E4E6F0E0AE
:100100001AD009E045D0EFE6F0E015D009E040D084
:10011000EAE7F0E00191003209F03AD001910032B3
:1001200009F036D0019134D0019132D0008130D025
:100130000AE02ED008950191005D2AD00191005D62
:1001400027D00EE225D00191005D22D009E020D019
:100150000191003209F01CD00191003221F008F029
:1001600001C0005D15D00191005D12D00EE210D0EB
:100170000081005D0DD0089500E0302E0EE1402E8C
:1001800049D03A94E9F75F99B6DF4A94C9F70895E0
:100190005D9BFECF0CB9089520E08894440F18F0C1
:1001A00004E009D002C006E006D000E004D02395A8
:1001B000283031F0F3CF1BB3117F012B0BBB089517
:1001C0001EF06894452FE8CF08E0F5DF00E0F3DF8C
:1001D00008950F930C2D02950F7014D000936B00AF
:1001E0000C2D0F700FD0086000936C000B2D029542
:1001F0000F7008D000936D000B2D0F7003D000938B
:100200006E0006C0EAE2F0E0E00FC895002D089508
:100210000F9108950FB70F93EBE6F0E051914EEF79
:10022000E894BADF51914DEFE894B6DF51914BEF6E
:10023000E894B2DF519147EFE894AEDF0F910FBF22
:1002400008950F930FB7F8940F931F932F933F9335
:100250004F935F93E894E8B2EF28E8BAE7B2EF284B
:10026000E7BAE8B2F094EF20E8BAB7E0A0ED5BD0CF
:10027000B7E0A0ED58D0E7B2EF20E7BAB0E0A0EACF
:1002800052D0E7B2EF20E7BAE8B2EF20E8BAB0E028
:10029000A8EC49D0F094E6B2EF2009F038C0B0E005
:1002A000A0EF41D0E6B2EF2009F431C0E6B2EF2072
:1002B00009F0FCCF1127222733274427552708E2CE
:1002C000E6B2EF2009F4FCCFB0E0A8EC2CD0E6B207
:1002D000EF2009F406C0E6B2EF2009F0FCCF089445
:1002E00001C08894111F221F331F441F551F0A95F8
:1002F00039F7121B131B141B151B49F440936000A4
:1003000050936100209362003093630001C06894B1
:100310005F914F913F912F911F910F9116F40064BF
:100320000FBF0F9108951197F1F708951197F1F705
:1003300008950F93B7E0A0EDF9DFB7E0A0EDF6DF89
:100340000A95C1F70F910895C298BA9AB7E0A8E547
:10035000EDDFBA98B1E0A8E1E9DF6894B29BE894D8
:10036000B3E0A0ECE3DF089518F4B0E0A4E002C02D
:10037000B1E0A0EEBA9ADADFBA98B0E0A0EFD6DF2B
:1003800008951F9310E00795EFDF13951830D9F704
:100390001F910895B0E0A4E0BA9AC8DFBA98B0E01F
:1003A000A4E1C4DFE894B2996894B0E0A8ECBEDFA1
:1003B00008940EF0889408951F9310E0EBDF0795E2
:1003C00013951830D9F71F9108950F931F932F930A
:1003D0003F934F93222733274427E89400916100ED
:1003E000109160001436030720F023951456004046
:1003F000F9CF1A3018F003951A50FBCF8EF02093E6
:1004000064000093650010936600689422270091B1
:1004100063001091620007FFE5CF42E00F77E2CF63
:1004200030E2222309F420E2442329F0203211F0A3
:100430003DE201C02DE230936700209368000093F5
:10044000690010936A004F913F912F911F910F9176
:1004500008950F931F9377FF07C000271127061BEE
:10046000170B602F712F7860062F0695069506955D
:100470000695770F770F770F770F702B6F70062F1A
:10048000000F660F660F660F600F6695669566959E
:100490006695703819F4662309F477271F910F9138
:1004A0000895E8940F932F931F931127222707FF96
:1004B00002C068940F77043618F004562395FBCFDA
:1004C000222331F4126020E220937A00222704C014
:1004D000205D20937A0022270A3018F00A502395D5
:1004E000FBCF222341F411FF06C0116020E22093CC
:1004F0007B00222704C0205D20937B002227005D23
:1005000000937C005EF410FF05C0E8942DE2209378
:100510007B0004C0E8942DE220937A001F912EE224
:1005200020937D00105D10937E002F910F91089510
:00000001FF
