:020000020000FC
:100000000FED0DBF01E809B900E002B900E00BB93E
:1000100008E10AB906E003B908C028B9BEAC05007A
:1000200000EC285BCAAC050000D94DD00CEC68D0C0
:1000300004E466D00AEF3CD03BD03AD044D0E894F8
:1000400026D00EEB5DD0002776D01DD074D01BD00B
:100050003AD00AEF2DD02CD02BD035D0689417D0C1
:100060000EEB4ED0002767D00ED065D00CD02BD031
:100070000AEF1ED01DD01CD01BD01AD019D018D01A
:1000800017D016D0D2CF5D9BFECF0CB9089505E5F1
:1000900037D010E0EAE1F0E00FB706FD38960591A1
:1000A0002FD013951830D9F708951197F1F70895C7
:1000B0000F93B9E0A4ECF9DFB9E0A4ECF6DF0A9500
:1000C000C1F70F91089594988C9AB7E0A0EDEDDFF9
:1000D0008C98B1E0A8E1E9DF6894849BE894B3E0F0
:1000E000A0ECE3DF089518F4B0E0A4E002C0B1E0B2
:1000F000A0EE8C9ADADF8C98B0E0A0EFD6DF0895FE
:100100001F9310E00795EFDF13951830D9F71F9173
:100110000895B0E0A4E08C9AC8DF8C98B0E0A4E128
:10012000C4DFE89484996894B0E0A8ECBEDF08943A
:100130000EF0889408951F9310E0EBDF0795139558
:080140001830D9F71F91089552
:00000001FF
