:020000020000FC
:100000000FE50DBF08E00EBF07E609B900E000BD2F
:1000100000E00BB908E10AB906E800BD07B10F71AD
:10002000006607B907B1007E076007B906B108711D
:10003000036E06B901B30C6001BB02B3037F02BBC0
:1000400028C05D9BFECF0CB9089530E040E050E140
:100050003A95F1F74A95E1F703D05A95C9F7089513
:1000600005B1003F20F002B3037F02BB08950D32BB
:1000700060F00C3328F002B3037F046002BB0895E4
:1000800002B3037F086002BB089502B30C6002BB99
:0A0090000895DBDF05B1D5DFFCCFDA
:00000001FF
