:020000020000FC
:1000000011C00FC004C10DC00CC00BC0EEC009C0B0
:1000100008C007C006C093C004C003C002C001C02E
:1000200000C018950FED0DBF9927A89504B7077F5D
:1000300004BF01B5086101BD0FE001BDA8950BB774
:1000400000610BBF02B3046102BB789400270BBBB5
:100050000AB303620ABBC298BA9AA89531D003D0FA
:100060004BD07CD0FACFCB9903C0D8989D7F089510
:10007000CC9907C09D7F92FD02C0D89A0895D89868
:10008000089591FF03C0D89892600895D3D0CC9979
:1000900002C09D7F0895D89800E0302E402E00E5E4
:1000A000502E3A94F1F7CC9B07C04A94D1F7A8950B
:1000B0005A94B9F79260089504E090279D7F0895BF
:1000C000CB9903C0D9989E7F0895CC9903C0D99845
:1000D0009E7F0895CA9B02C09E7F089590FF01C035
:1000E0000895A8D0CA9B02C09E7F08950BB312E06A
:1000F00001270BBB91600895CB9903C0C298977FED
:100100000895C29B01C00895C29893FD0FC0F89452
:1001100009B7016009BF05E003BF00E002BF0AE0C4
:10012000602E0DE3702E986078940895662009F093
:100130000895C29A977F09B70E7F09BF08950F935C
:100140000FB70F93F894A8957A94772019F40DE3DC
:10015000702E6A940F910FBF0F911895CE9B14C00B
:100160009F7D96FF01C0089565D0CF9B03C094FF8B
:1001700003C009C094FF07C0CF9B03C0DD9A906104
:100180000895DD989F7E089555D0CE99E7CF95FFCD
:1001900001C0089500E0302E402E00E5502E3A9424
:1001A000F1F7CE9915C04A94D1F7A8955A94B9F7AA
:1001B000906290640EB505600EBD0AE70BBD02E1CA
:1001C0000ABD00E00DBD0CBD0CB102600CB9089574
:1001D0009F7D96FF05C09F7B0CB10D7F0CB9C4CFEE
:1001E00000E21BB310271BBB08950F930FB70F93AB
:1001F0001F93F89400E00DBD0CBDA89500E21BB361
:1002000010271BBB1F910F910FBF0F9118950F93D4
:100210000FB70F931F933F924F925F92F894A89558
:100220004FDF21DF5F904F903F901F910F910FBFE5
:100230000F91189500E0302E402E01E0502E3A9498
:0C024000F1F74A94E1F75A94D1F70895C1
:00000001FF
